:020000040800F2
:1000000000800120A90A00081D0A0008230A000830
:10001000290A00082F0A0008350A0008000000001D
:100020000000000000000000000000003B0A000883
:10003000490A000800000000570A0008650A000885
:10004000F90A0008F90A0008F90A0008F90A000884
:10005000F90A0008F90A0008F90A0008F90A000874
:10006000F90A0008F90A0008F90A0008F90A000864
:10007000F90A0008F90A0008F90A0008F90A000854
:10008000F90A0008F90A0008F90A0008000000004F
:10009000000000000000000000000000F90A000855
:1000A000F90A0008710A0008F90A0008F90A0008AC
:1000B000F90A0008F90A0008F90A0008F90A000814
:1000C000F90A0008F90A0008F90A0008F90A000804
:1000D000F90A0008F90A0008F90A000800000000FF
:1000E000F90A0008F90A0008F90A000800000000EF
:1000F000000000000000000000000000F90A0008F5
:1001000000000000F90A0008F90A0008F90A0008CE
:1001100000000000000000000000000000000000DF
:10012000F90A0008F90A0008F90A0008F90A0008A3
:10013000F90A0008000000000000000000000000B4
:10014000000000000000000000000000F90A0008A4
:10015000F90A0008F90A0008F90A0008F90A000873
:10016000F90A0008F90A0008000000000000000079
:10017000000000000000000000000000000000007F
:1001800000000000F90A0008000000000000000064
:04019000F90A000860
:1001940010B5054C237833B9044B13B10448AFF3BD
:1001A40000800123237010BD100000200000000017
:1001B400782F000808B5034B1BB103490348AFF37C
:1001C400008008BD0000000014000020782F000803
:1001D40053B94AB9002908BF00281CBF4FF0FF31AA
:1001E4004FF0FF3000F074B9ADF1080C6DE904CEA6
:1001F40000F006F8DDF804E0DDE9022304B07047FE
:100204002DE9F047089D04468E46002B4DD18A42C5
:10021400944669D9B2FA82F252B101FA02F3C2F1F8
:10022400200120FA01F10CFA02FC41EA030E944089
:100234004FEA1C48210CBEFBF8F61FFA8CF708FBAA
:1002440016E341EA034306FB07F199420AD91CEB82
:10025400030306F1FF3080F01F81994240F21C81B4
:10026400023E63445B1AA4B2B3FBF8F008FB1033FC
:1002740044EA034400FB07F7A7420AD91CEB040431
:1002840000F1FF3380F00A81A74240F20781644401
:10029400023840EA0640E41B00261DB1D440002386
:1002A400C5E900433146BDE8F0878B4209D9002DEA
:1002B40000F0EF800026C5E9000130463146BDE874
:1002C400F087B3FA83F6002E4AD18B4202D38242DE
:1002D40000F2F980841A61EB030301209E46002D8D
:1002E400E0D0C5E9004EDDE702B9FFDEB2FA82F2E2
:1002F400002A40F09280A1EB0C014FEA1C471FFA40
:100304008CFE0126200CB1FBF7F307FB131140EA26
:1003140001410EFB03F0884208D91CEB010103F1F3
:10032400FF3802D2884200F2CB804346091AA4B2B5
:10033400B1FBF7F007FB101144EA01440EFB00FE89
:10034400A64508D91CEB040400F1FF3102D2A645EE
:1003540000F2BB800846A4EB0E0440EA03409CE78D
:10036400C6F12007B34022FA07FC4CEA030C20FA3A
:1003740007F401FA06F31C43F9404FEA1C4900FA5A
:1003840006F3B1FBF9F8200C1FFA8CFE09FB1811D7
:1003940040EA014108FB0EF0884202FA06F20BD94A
:1003A4001CEB010108F1FF3A80F08880884240F29A
:1003B4008580A8F102086144091AA4B2B1FBF9F0DE
:1003C40009FB101144EA014100FB0EFE8E4508D9D9
:1003D4001CEB010100F1FF346CD28E456AD902385E
:1003E400614440EA0840A0FB0294A1EB0E01A14243
:1003F400C846A64656D353D05DB1B3EB080261EBB1
:100404000E0101FA07F722FA06F3F1401F43C5E98A
:10041400007100263146BDE8F087C2F12003D840C0
:100424000CFA02FC21FA03F3914001434FEA1C4702
:100434001FFA8CFEB3FBF7F007FB10360B0C43EAF4
:10044400064300FB0EF69E4204FA02F408D91CEBA4
:10045400030300F1FF382FD29E422DD902386344A2
:100464009B1B89B2B3FBF7F607FB163341EA034142
:1004740006FB0EF38B4208D91CEB010106F1FF3891
:1004840016D28B4214D9023E6144C91A46EA004688
:1004940038E72E46284605E70646E3E61846F8E61A
:1004A4004B45A9D2B9EB020864EB0C0E0138A3E763
:1004B4004646EAE7204694E74046D1E7D0467BE744
:1004C400023B614432E7304609E76444023842E7BC
:1004D400704700BF80B500AF00F00EFB00F02CF8B1
:1004E40000F090F900F088F800F0D8F80A210E48DE
:1004F40000F06CFC0346002BF8D10B4800F0F1FC33
:1005040007EE900AB8EE677ADFED086AC7EE267A3E
:100514009FED077A67EE877A064BC3ED007A0248AF
:1005240000F0A0FBE2E700BF2C00002000008045A3
:1005340033335340BC00002080B594B000AF07F1C2
:10054400200330220021184602F00CFD07F10C03B1
:1005540000221A605A609A60DA601A610023BB6054
:10056400234B1B6C224A43F080531364204B1B6CB7
:1005740003F08053BB60BB6800237B601D4B1B688A
:1005840023F440431B4A43F400431360194B1B6894
:1005940003F440437B607B6802233B620123FB62DC
:1005A40010233B630023BB6307F12003184601F0CB
:1005B40059F90346002B01D000F05AF90F23FB60D0
:1005C40000233B6100237B610023BB610023FB61AB
:1005D40007F10C030021184601F0BCFB0346002B75
:1005E40001D000F045F900BF5037BD4680BD00BFC3
:1005F400003802400070004080B584B000AF3B4634
:1006040000221A605A609A60DA60214B214A1A600B
:100614001F4B00225A601E4B00229A601C4B002282
:100624001A611B4B01221A76194B002283F82020F1
:10063400174B0022DA62164B174A9A62144B0022B7
:10064400DA60134B0122DA61114B002283F8302067
:100654000F4B01225A610E4800F0C0FA0346002BEA
:1006640001D000F005F900233B6001237B600023E7
:10067400BB603B461946064800F040FC0346002B8D
:1006840001D000F0F5F800BF1037BD4680BD00BFB3
:100694002C000020002001400100000F80B596B01E
:1006A40000AF07F1480300221A605A609A60DA60CA
:1006B40007F1400300221A605A6007F12403002264
:1006C4001A605A609A60DA601A615A619A613B1D35
:1006D40020220021184602F045FC484B484A1A6083
:1006E400464B40F23F625A60444B00229A60434BAF
:1006F400C822DA60414B00221A61404B00225A6141
:100704003E4B00229A613D4801F0D0FC0346002B89
:1007140001D000F0ADF84FF48053BB6407F14803F7
:100724001946364801F090FF0346002B01D000F033
:100734009FF8324801F064FD0346002B01D000F01D
:1007440097F800233B6400237B6407F140031946B8
:100754002A4802F00FFB0346002B01D000F088F872
:1007640060237B620023BB620023FB6200233B63A4
:1007740000237B630023BB630023FB6307F1240393
:10078400002219461D4801F09DFE0346002B01D0AE
:1007940000F06EF800237B600023BB600023FB6045
:1007A40000233B6100237B614FF40053BB610023B2
:1007B4003B623B1D1946114802F04AFB0346002BDD
:1007C40001D000F055F80D4B1B685A6C0B4B1B689D
:1007D40042F400425A64094B1B68DA68074B1B68F1
:1007E40042F00102DA60054801F0B0FC034800F071
:1007F400D9F800BF5837BD4680BD00BF7400002043
:100804000000014080B483B000AF00237B60094B3B
:100814001B6B084A43F001031363064B1B6B03F085
:1008240001037B607B6800BF0C37BD465DF8047B29
:10083400704700BF0038024080B483B000AF7860D6
:100844000A4B1B78DBB20E2B02D9084B05221A7017
:10085400064B1B78DBB20133DAB2044B1A7000BFCB
:100864000C37BD465DF8047B704700BF00000020D4
:1008740080B400AF72B600BFFEE7000080B483B05E
:1008840000AF00237B60104B5B6C0F4A43F4804342
:1008940053640D4B5B6C03F480437B607B680023E3
:1008A4003B60094B1B6C084A43F080531364064BAE
:1008B4001B6C03F080533B603B6800BF0C37BD46A4
:1008C4005DF8047B704700BF0038024080B58AB0F1
:1008D40000AF786007F1140300221A605A609A602E
:1008E400DA601A617B681B68174A934227D1002398
:1008F4003B61164B5B6C154A43F480735364134B92
:100904005B6C03F480733B613B690023FB600F4B1A
:100914001B6B0E4A43F0010313630C4B1B6B03F078
:100924000103FB60FB6801237B610323BB6100239C
:10093400FB6107F114031946054800F00FFE00BFE0
:100944002837BD4680BD00BF00200140003802406A
:100954000000024080B584B000AF78607B681B68FB
:100964000E4A934215D10023FB600D4B5B6C0C4A7D
:1009740043F0010353640A4B5B6C03F00103FB6017
:10098400FB6800220021192000F0B1FD192000F0BD
:10099400CAFD00BF1037BD4680BD00BF0000014046
:1009A4000038024080B588B000AF786007F10C03CE
:1009B40000221A605A609A60DA601A617B681B68C8
:1009C400124A93421ED10023BB60114B1B6B104A89
:1009D40043F0010313630E4B1B6B03F00103BB6075
:1009E400BB684FF48073FB6002233B6100237B618F
:1009F4000023BB610123FB6107F10C031946054881
:100A040000F0ACFD00BF2037BD4680BD00000140B2
:100A1400003802400000024080B400AFFEE780B41A
:100A240000AFFEE780B400AFFEE780B400AFFEE79E
:100A340080B400AFFEE780B400AF00BFBD465DF8F0
:100A4400047B704780B400AF00BFBD465DF8047BF3
:100A5400704780B400AF00BFBD465DF8047B7047AB
:100A640080B500AF00F09AF800BF80BD80B500AF3C
:100A7400024801F01EFC00BF80BD00BF74000020CE
:100A840080B400AF064BD3F88830054A43F47003B2
:100A9400C2F8883000BFBD465DF8047B704700BFD4
:100AA40000ED00E0DFF834D00D480E490E4A002373
:100AB40002E0D458C4500433C4188C42F9D30B4A0E
:100AC4000B4C002301E013600432A242FBD3FFF776
:100AD400D7FF02F023FAFFF7FDFC704700800120E6
:100AE4000000002010000020B02F0008100000209B
:100AF400C4000020FEE7000080B500AF0E4B1B6869
:100B04000D4A43F4007313600B4B1B680A4A43F409
:100B140080631360084B1B68074A43F480731360B7
:100B2400032000F0D9FC0F2000F008F8FFF7A6FE20
:100B34000023184680BD00BF003C024080B582B04F
:100B440000AF7860124B1A68124B1B7819464FF4A9
:100B54007A73B3FBF1F3B2FBF3F3184600F0F1FC44
:100B64000346002B01D001230EE07B680F2B0AD82B
:100B7400002279684FF0FF3000F0B9FC064A7B6828
:100B84001360002300E0012318460837BD4680BDEA
:100B9400040000200C0000200800002080B400AFF6
:100BA400064B1B781A46064B1B681344044A136011
:100BB40000BFBD465DF8047B704700BF0C000020F9
:100BC400C000002080B400AF034B1B681846BD462C
:100BD4005DF8047B704700BFC000002080B584B07E
:100BE40000AF78600023FB737B68002B01D10123E5
:100BF40033E07B681B6C002B09D17868FFF766FE35
:100C04007B6800225A647B68002283F83C207B685E
:100C14001B6C03F01003002B18D17B681B6C23F4AE
:100C2400885323F0020343F002027B681A64786855
:100C340000F086FA7B6800225A647B681B6C23F000
:100C4400030343F001027B681A6401E00123FB7390
:100C54007B68002283F83C20FB7B18461037BD4696
:100C640080BD000080B485B000AF78600023BB6015
:100C74007B6893F83C30012B01D1022397E07B6819
:100C8400012283F83C207B681B689B6803F0010306
:100C9400012B18D07B681B689A687B681B6842F03C
:100CA40001029A60454B1B68454AA2FB03239A0C38
:100CB40013465B001344BB6002E0BB68013BBB60AE
:100CC400BB68002BF9D17B681B689B6803F00103A8
:100CD400012B5FD17B681B6C23F4E06323F00103D9
:100CE40043F480727B681A647B681B685B6803F456
:100CF4008063002B07D07B681B6C23F4405343F4C0
:100D040080527B681A647B681B6C03F48053B3F5D0
:100D1400805F06D17B685B6C23F006027B685A64B3
:100D240002E07B6800225A647B68002283F83C203E
:100D3400244BFB607B681B686FF022021A60FB681F
:100D44005B6803F01F03002B0FD17B681B689B6853
:100D540003F04053002B29D17B681B689A687B6899
:100D64001B6842F080429A6020E07B681B68164A48
:100D740093421BD17B681B689B6803F04053002B94
:100D840014D17B681B689A687B681B6842F08042B8
:100D94009A600BE07B681B6C43F010027B681A645A
:100DA4007B685B6C43F001027B685A64002318463D
:100DB4001437BD465DF8047B704700BF0400002073
:100DC40083DE1B43002301400020014080B584B032
:100DD40000AF786039600023FB607B681B689B6808
:100DE40003F48063B3F5806F13D17B681B689B6841
:100DF40003F48073B3F5807F0BD17B681B6C43F0E5
:100E040020027B681A647B68002283F83C2001235B
:100E140063E0FFF7D7FEF86021E03B68B3F1FF3FE2
:100E24001DD03B68002B07D0FFF7CCFE0246FB68C1
:100E3400D31A3A689A4212D27B681B681B6803F083
:100E44000203022B0BD07B681B6C43F004027B680B
:100E54001A647B68002283F83C2003233DE07B680E
:100E64001B681B6803F00203022BD6D17B681B6846
:100E74006FF012021A607B681B6C43F400727B688B
:100E84001A647B681B689B6803F04053002B23D1D2
:100E94007B681B7E002B1FD17B681B68DB6A03F415
:100EA4007003002B06D07B681B689B6803F4806387
:100EB400002B11D17B681B6C23F480727B681A644D
:100EC4007B681B6C03F48053002B05D17B681B6C7F
:100ED40043F001027B681A64002318461037BD46AC
:100EE40080BD80B483B000AF78607B681B68DB6C26
:100EF40018460C37BD465DF8047B704780B485B056
:100F040000AF786039600023BB607B6893F83C30A5
:100F1400012B01D1022305E17B68012283F83C20E7
:100F24003B681B68092B25D97B681B68D9683B681B
:100F34001B689BB21A4613465B0013441E3B0722F0
:100F440002FA03F3DA437B681B680A40DA607B68C1
:100F54001B68D9683B689A683B681B689BB2184653
:100F640003465B0003441E3B9A407B681B680A43AC
:100F7400DA6022E07B681B6819693B681B689BB2D6
:100F84001A4613465B001344072202FA03F3DA43BA
:100F94007B681B680A401A617B681B6819693B6897
:100FA4009A683B681B689BB2184603465B0003447F
:100FB4009A407B681B680A431A613B685B68062B8E
:100FC40024D87B681B68596B3B685A6813469B009E
:100FD4001344053B1F2202FA03F3DA437B681B68C0
:100FE4000A405A637B681B68596B3B681B689BB259
:100FF40018463B685A6813469B001344053B00FAA5
:1010040003F27B681B680A435A634CE03B685B68E5
:101014000C2B24D87B681B68196B3B685A681346F1
:101024009B001344233B1F2202FA03F3DA437B6839
:101034001B680A401A637B681B68196B3B681B6852
:101044009BB218463B685A6813469B001344233BE3
:1010540000FA03F27B681B680A431A6323E07B6887
:101064001B68D96A3B685A6813469B001344413B8A
:101074001F2202FA03F3DA437B681B680A40DA6230
:101084007B681B68D96A3B681B689BB218463B683F
:101094005A6813469B001344413B00FA03F27B68F1
:1010A4001B680A43DA62224BFB607B681B68214A97
:1010B400934209D13B681B68122B05D1FB685B681E
:1010C40043F48002FB685A607B681B68194A9342A8
:1010D40023D13B681B68102B03D03B681B68112B82
:1010E4001BD1FB685B6843F40002FB685A603B68F1
:1010F4001B68102B11D1104B1B68104AA2FB032351
:101104009A0C13469B0013445B00BB6002E0BB686F
:10111400013BBB60BB68002BF9D17B68002283F8DC
:101124003C20002318461437BD465DF8047B704705
:1011340000230140002001400400002083DE1B4303
:1011440080B485B000AF7860794BFB60FB685B6866
:1011540023F44032FB685A60FB685A687B685B681A
:101164001A43FB685A607B681B685A687B681B6873
:1011740022F480725A607B681B6859687B681B691B
:101184001A027B681B680A435A607B681B685A68AA
:101194007B681B6822F040725A607B681B68596840
:1011A4007B689A687B681B680A435A607B681B6883
:1011B4009A687B681B6822F400629A607B681B68EB
:1011C40099687B68DA687B681B680A439A607B6865
:1011D4009B6A584A934222D07B681B689A687B6852
:1011E4001B6822F070629A607B681B6899687B6850
:1011F4009A6A7B681B680A439A607B681B689A68D2
:101204007B681B6822F040529A607B681B6899686F
:101214007B68DA6A7B681B680A439A600FE07B6824
:101224001B689A687B681B6822F070629A607B680E
:101234001B689A687B681B6822F040529A607B683E
:101244001B689A687B681B6822F002029A607B68BC
:101254001B6899687B681B7E5A007B681B680A437D
:101264009A607B6893F82030002B1BD07B681B6846
:101274005A687B681B6842F400625A607B681B688A
:101284005A687B681B6822F460425A607B681B685A
:1012940059687B685B6A013B5A037B681B680A4395
:1012A4005A6007E07B681B685A687B681B6822F4F5
:1012B40000625A607B681B68DA6A7B681B6822F4E8
:1012C4007002DA627B681B68D96A7B68DB69013B60
:1012D4001A057B681B680A43DA627B681B689A6894
:1012E4007B681B6822F400729A607B681B689968AB
:1012F4007B6893F830305A027B681B680A439A6013
:101304007B681B689A687B681B6822F480629A6019
:101314007B681B6899687B685B699A027B681B68B9
:101324000A439A6000BF1437BD465DF8047B7047DA
:10133400002301400100000F80B485B000AF786045
:101344007B6803F00703FB600C4BDB68BB60BA6887
:101354004FF6FF031340BB60FB681A02BB681343DC
:1013640043F0BF6343F40033BB60044ABB68D360FB
:1013740000BF1437BD465DF8047B704700ED00E004
:1013840080B400AF044BDB681B0A03F00703184664
:10139400BD465DF8047B704700ED00E080B483B087
:1013A40000AF0346FB7197F90730002B0BDBFB7989
:1013B40003F01F02074997F907305B09012000FA7F
:1013C40002F241F8232000BF0C37BD465DF8047BD0
:1013D400704700BF00E100E080B483B000AF034673
:1013E4003960FB7197F90730002B0ADB3B68DAB2EE
:1013F4000C4997F907301201D2B20B4483F8002349
:101404000AE03B68DAB20849FB7903F00F03043BB6
:101414001201D2B20B441A7600BF0C37BD465DF8F8
:10142400047B704700E100E000ED00E080B489B087
:1014340000AFF860B9607A60FB6803F00703FB61F2
:10144400FB69C3F10703042B28BF0423BB61FB69B9
:101454000433062B02D9FB69033B00E000237B61C4
:101464004FF0FF32BB6902FA03F3DA43BB681A4058
:101474007B699A404FF0FF317B6901FA03F3D9434A
:101484007B680B40134318462437BD465DF8047B44
:101494007047000080B582B000AF78607B68013B84
:1014A400B3F1807F01D301230FE00A4A7B68013B3B
:1014B40053600F214FF0FF30FFF78EFF054B0022E2
:1014C4009A60044B07221A60002318460837BD4669
:1014D40080BD00BF10E000E080B582B000AF78604E
:1014E4007868FFF729FF00BF0837BD4680BD80B587
:1014F40086B000AF0346B9607A60FB7300237B615A
:10150400FFF73EFF78617A68B9687869FFF78EFF64
:10151400024697F90F3011461846FFF75DFF00BFEA
:101524001837BD4680BD80B582B000AF0346FB715D
:1015340097F907301846FFF731FF00BF0837BD465B
:1015440080BD80B582B000AF78607868FFF7A2FFF5
:10155400034618460837BD4680BD000080B489B0F4
:1015640000AF7860396000237B6100233B61002376
:10157400BB610023FB6159E10122FB6902FA03F319
:101584007B613B681B687A6913403B613A697B69FC
:101594009A4240F048813B685B6803F00303012BE7
:1015A40005D03B685B6803F00303022B30D17B68F2
:1015B4009B68BB61FB695B00032202FA03F3DB4314
:1015C400BA691340BB613B68DA68FB695B0002FAE5
:1015D40003F3BA691343BB617B68BA699A607B6899
:1015E4005B68BB610122FB6902FA03F3DB43BA695E
:1015F4001340BB613B685B681B0903F00102FB6994
:1016040002FA03F3BA691343BB617B68BA695A608F
:101614003B685B6803F00303032B17D07B68DB682C
:10162400BB61FB695B00032202FA03F3DB43BA6983
:101634001340BB613B689A68FB695B0002FA03F3E1
:10164400BA691343BB617B68BA69DA603B685B685B
:1016540003F00303022B23D1FB69DA087B68083209
:1016640053F82230BB61FB6903F007039B000F2290
:1016740002FA03F3DB43BA691340BB613B681A699E
:10168400FB6903F007039B0002FA03F3BA691343EF
:10169400BB61FB69DA087B680832B96943F8221038
:1016A4007B681B68BB61FB695B00032202FA03F3DE
:1016B400DB43BA691340BB613B685B6803F0030218
:1016C400FB695B0002FA03F3BA691343BB617B68ED
:1016D400BA691A603B685B6803F44033002B00F07E
:1016E400A2800023FB60574B5B6C564A43F4804353
:1016F4005364544B5B6C03F48043FB60FB68524AB5
:10170400FB699B08023352F82330BB61FB6903F089
:1017140003039B000F2202FA03F3DB43BA6913406D
:10172400BB617B68494A934219D07B68484A93421B
:1017340013D07B68474A93420DD07B68464A934254
:1017440007D07B68454A934201D1042308E007236C
:1017540006E0032304E0022302E0012300E0002367
:10176400FA6902F0030292009340BA691343BB6121
:101774003549FB699B080233BA6941F82320384B89
:101784009B68BB613B69DB43BA691340BB613B683F
:101794005B6803F48013002B03D0BA693B691343DD
:1017A400BB612F4ABB6993602D4BDB68BB613B690E
:1017B400DB43BA691340BB613B685B6803F4001305
:1017C400002B03D0BA693B691343BB61244ABB694C
:1017D400D360234B5B68BB613B69DB43BA6913404D
:1017E400BB613B685B6803F40033002B03D0BA6928
:1017F4003B691343BB611A4ABB695360184B1B68AE
:10180400BB613B69DB43BA691340BB613B685B68FE
:1018140003F48033002B03D0BA693B691343BB61E3
:101824000F4ABB691360FB690133FB61FB690F2B32
:101834007FF6A2AE00BF00BF2437BD465DF8047B2F
:10184400704700BF003802400038014000000240E9
:101854000004024000080240000C02400010024054
:10186400003C014080B586B000AF78607B68002BF7
:1018740001D1012367E27B681B6803F00103002B9D
:1018840075D0884B9B6803F00C03042B0CD0854B5C
:101894009B6803F00C03082B12D1824B5B6803F4A2
:1018A4008003B3F5800F0BD17E4B1B6803F4003328
:1018B400002B5BD07B685B68002B57D1012342E28D
:1018C4007B685B68B3F5803F06D1764B1B68754A2D
:1018D40043F4803313601DE07B685B68B3F5A02F8D
:1018E4000CD1704B1B686F4A43F4802313606D4B1B
:1018F4001B686C4A43F4803313600BE0694B1B682C
:10190400684A23F480331360664B1B68654A23F4EA
:10191400802313607B685B68002B13D0FFF752F9B8
:10192400386108E0FFF74EF902463B69D31A642B8D
:1019340001D9032307E25B4B1B6803F40033002B3C
:10194400F0D014E0FFF73EF9386108E0FFF73AF908
:1019540002463B69D31A642B01D90323F3E1514BAB
:101964001B6803F40033002BF0D100E000BF7B6858
:101974001B6803F00203002B63D04A4B9B6803F0FF
:101984000C03002B0BD0474B9B6803F00C03082B74
:101994001CD1444B5B6803F48003002B16D1414BEC
:1019A4001B6803F00203002B05D07B68DB68012B66
:1019B40001D00123C7E13B4B1B6823F0F8027B688D
:1019C4001B69DB00374913430B603AE07B68DB6833
:1019D400002B20D0344B01221A60FFF7F3F8386152
:1019E40008E0FFF7EFF802463B69D31A022B01D94E
:1019F4000323A8E12B4B1B6803F00203002BF0D058
:101A0400284B1B6823F0F8027B681B69DB0025491F
:101A140013430B6015E0244B00221A60FFF7D2F841
:101A2400386108E0FFF7CEF802463B69D31A022B6F
:101A340001D9032387E11B4B1B6803F00203002B2E
:101A4400F0D17B681B6803F00803002B36D07B6859
:101A54005B69002B16D0154B01221A60FFF7B2F810
:101A6400386108E0FFF7AEF802463B69D31A022B4F
:101A740001D9032367E10B4B5B6F03F00203002BD7
:101A8400F0D01BE0094B00221A60FFF79BF8386185
:101A94000EE0FFF797F802463B69D31A022B07D9E9
:101AA400032350E10038024000004742800E4742C1
:101AB400884B5B6F03F00203002BEAD17B681B6841
:101AC40003F00403002B00F097800023FB75814B87
:101AD4001B6C03F08053002B0FD10023BB607D4BA4
:101AE4001B6C7C4A43F0805313647A4B1B6C03F0E9
:101AF4008053BB60BB680123FB75774B1B6803F401
:101B04008073002B18D1744B1B68734A43F48073A1
:101B14001360FFF757F8386108E0FFF753F80246FF
:101B24003B69D31A022B01D903230CE16A4B1B68CE
:101B340003F48073002BF0D07B689B68012B06D1E3
:101B4400644B1B6F634A43F0010313671CE07B681B
:101B54009B68052B0CD15F4B1B6F5E4A43F004035B
:101B640013675C4B1B6F5B4A43F0010313670BE085
:101B7400584B1B6F574A23F001031367554B1B6FD8
:101B8400544A23F0040313677B689B68002B15D029
:101B9400FFF718F838610AE0FFF714F802463B69CA
:101BA400D31A41F28832934201D90323CBE0494B43
:101BB4001B6F03F00203002BEED014E0FFF702F8D2
:101BC40038610AE0FEF7FEFF02463B69D31A41F290
:101BD4008832934201D90323B5E03E4B1B6F03F0D7
:101BE4000203002BEED1FB7D012B05D1394B1B6C7D
:101BF400384A23F0805313647B689B69002B00F000
:101C0400A180344B9B6803F00C03082B5CD07B68E9
:101C14009B69022B41D1314B00221A60FEF7D2FF9F
:101C2400386108E0FEF7CEFF02463B69D31A022B67
:101C340001D9032387E0274B1B6803F00073002BB3
:101C4400F0D17B68DA697B681B6A1A437B685B6A3C
:101C54009B011A437B689B6A5B08013B1B041A4384
:101C64007B68DB6A1B061B4913434B601B4B012239
:101C74001A60FEF7A7FF386108E0FEF7A3FF0246EB
:101C84003B69D31A022B01D903235CE0114B1B6877
:101C940003F00073002BF0D054E0104B00221A60C4
:101CA400FEF790FF386108E0FEF78CFF02463B69BF
:101CB400D31A022B01D9032345E0064B1B6803F01A
:101CC4000073002BF0D13DE07B689B69012B07D1A9
:101CD400012338E0003802400070004060004742B1
:101CE4001B4B5B68FB607B689B69012B28D0FB68FE
:101CF40003F480027B68DB699A4221D1FB6803F01C
:101D04003F027B681B6A9A421AD1FA6847F6C0738D
:101D140013407A68526A9201934211D1FB6803F42A
:101D240040327B689B6A5B08013B1B049A4207D1E3
:101D3400FB6803F070627B68DB6A1B069A4201D081
:101D4400012300E0002318461837BD4680BD00BFBC
:101D54000038024080B584B000AF786039607B6899
:101D6400002B01D10123CCE0684B1B6803F007036F
:101D74003A689A420CD9654B3A68D2B21A70634BEE
:101D84001B6803F007033A689A4201D00123B8E0C4
:101D94007B681B6803F00203002B20D07B681B6860
:101DA40003F00403002B05D0594B9B68584A43F4B5
:101DB400E05393607B681B6803F00803002B05D095
:101DC400534B9B68524A43F460439360504B9B6867
:101DD40023F0F0027B689B684D4913438B607B685A
:101DE4001B6803F00103002B44D07B685B68012B64
:101DF40007D1474B1B6803F40033002B19D101238F
:101E04007FE07B685B68022B03D07B685B68032BF5
:101E140007D13F4B1B6803F00073002B09D101234A
:101E24006FE03B4B1B6803F00203002B01D101233D
:101E340067E0374B9B6823F003027B685B68344997
:101E440013438B60FEF7BEFEF8600AE0FEF7BAFEAD
:101E54000246FB68D31A41F28832934201D9032324
:101E64004FE02B4B9B6803F00C027B685B689B0084
:101E74009A42EBD1254B1B6803F007033A689A4258
:101E84000CD2224B3A68D2B21A70204B1B6803F072
:101E940007033A689A4201D0012332E07B681B6849
:101EA40003F00403002B08D0194B9B6823F4E05281
:101EB4007B68DB68164913438B607B681B6803F0FF
:101EC4000803002B09D0124B9B6823F460427B6803
:101ED4001B69DB000E4913438B6000F021F80246B6
:101EE4000B4B9B681B0903F00F030A49CB5C22FAD6
:101EF40003F3094A1360094B1B681846FEF71EFEDC
:101F0400002318461037BD4680BD00BF003C024088
:101F140000380240902F0008040000200800002030
:101F24002DE9B04F90B000AF00237B630023FB6327
:101F340000233B630023BB63594B9B6803F00C03F2
:101F4400082B0DD0082B00F2A180002B02D0042B0B
:101F540003D09BE0534BBB639BE0534BBB6398E0C4
:101F64004F4B5B6803F03F037B634D4B5B6803F4AB
:101F74008003002B28D04A4B5B689B0900223B62FC
:101F84007A623B6AC3F308000021474B03FB01F26A
:101F9400002300FB03F31344434AA0FB0212FA623A
:101FA4000A46BA62FA6A1344FB627B6B0022BB6185
:101FB400FA61D7E90623D7E90A01FEF709F90246CF
:101FC4000B461346FB6353E0354B5B689B090022C9
:101FD4003B617A613B69C3F3080A4FF0000B524638
:101FE4005B464FF000004FF00001590141EAD26115
:101FF400500102460B46B2EB0A0863EB0B094FF0A3
:1020040000024FF000034FEA891343EA98634FEA52
:102014008812B2EB080463EB09054FF000024FF09D
:102024000003EB0043EA5473E20014461D4614EB2C
:102034000A033B6045EB0B037B604FF000024FF05B
:102044000003D7E9004529468B02214643EA915310
:1020540021468A02104619467B6B0022BB60FA6057
:10206400D7E90223FEF7B4F802460B461346FB6396
:102074000B4B5B681B0C03F0030301335B003B63F6
:10208400FA6B3B6BB2FBF3F3BB6302E0054BBB6340
:1020940000BFBB6B18464037BD46BDE8B08F00BFDC
:1020A400003802400024F40040787D0180B582B0FD
:1020B40000AF78607B68002B01D1012341E07B688D
:1020C40093F83D30DBB2002B06D17B68002283F805
:1020D4003C207868FEF73EFC7B68022283F83D20B2
:1020E4007B681A687B6804331946104600F09CFB31
:1020F4007B68012283F846207B68012283F83E2016
:102104007B68012283F83F207B68012283F840200A
:102114007B68012283F841207B68012283F84220F6
:102124007B68012283F843207B68012283F84420E2
:102134007B68012283F845207B68012283F83D20D7
:10214400002318460837BD4680BD000080B485B022
:1021540000AF78607B6893F83D30DBB2012B01D08F
:1021640001233CE07B68022283F83D207B681B68E6
:102174001E4A934218D07B681B68B3F1804F13D07A
:102184007B681B681A4A93420ED07B681B68194A05
:10219400934209D07B681B68174A934204D07B683A
:1021A4001B68164A934211D17B681B689B6803F035
:1021B4000703FB60FB68062B10D07B681B681A685A
:1021C4007B681B6842F001021A6007E07B681B68A9
:1021D4001A687B681B6842F001021A6000231846E3
:1021E4001437BD465DF8047B704700BF0000014012
:1021F4000004004000080040000C00400040014082
:1022040080B582B000AF78607B68002B01D10123D8
:1022140041E07B6893F83D30DBB2002B06D17B684C
:10222400002283F83C20786800F039F87B680222A9
:1022340083F83D207B681A687B680433194610468E
:1022440000F0F2FA7B68012283F846207B680122C1
:1022540083F83E207B68012283F83F207B680122BB
:1022640083F840207B68012283F841207B680122A7
:1022740083F842207B68012283F843207B68012293
:1022840083F844207B68012283F845207B6801227F
:1022940083F83D20002318460837BD4680BD80B42E
:1022A40083B000AF786000BF0C37BD465DF8047B97
:1022B400704780B582B000AF78607B681B681B698B
:1022C40003F00203022B22D17B681B68DB6803F056
:1022D4000203022B1BD17B681B686FF002021A6198
:1022E4007B6801221A777B681B689B6903F00303F0
:1022F400002B03D0786800F078FA05E0786800F0E5
:102304006AFA786800F07BFA7B6800221A777B68A7
:102314001B681B6903F00403042B22D17B681B6830
:10232400DB6803F00403042B1BD17B681B686FF08C
:1023340004021A617B6802221A777B681B689B6916
:1023440003F44073002B03D0786800F04EFA05E0E4
:10235400786800F040FA786800F051FA7B6800224F
:102364001A777B681B681B6903F00803082B22D1CA
:102374007B681B68DB6803F00803082B1BD17B68B0
:102384001B686FF008021A617B6804221A777B6865
:102394001B68DB6903F00303002B03D0786800F0AB
:1023A40024FA05E0786800F016FA786800F027FA55
:1023B4007B6800221A777B681B681B6903F0100393
:1023C400102B22D17B681B68DB6803F01003102BF1
:1023D4001BD17B681B686FF010021A617B680822AE
:1023E4001A777B681B68DB6903F44073002B03D006
:1023F400786800F0FAF905E0786800F0ECF978689C
:1024040000F0FDF97B6800221A777B681B681B6962
:1024140003F00103012B0ED17B681B68DB6803F01A
:102424000103012B07D17B681B686FF001021A615D
:102434007868FEF701FA7B681B681B6903F0800368
:10244400802B0ED17B681B68DB6803F08003802B34
:1024540007D17B681B686FF080021A61786800F00E
:1024640053FD7B681B681B6903F04003402B0ED1AE
:102474007B681B68DB6803F04003402B07D17B6853
:102484001B686FF040021A61786800F0C2F97B683B
:102494001B681B6903F02003202B0ED17B681B688B
:1024A400DB6803F02003202B07D17B681B686FF0E7
:1024B40020021A61786800F01DFD00BF0837BD4690
:1024C40080BD000080B586B000AFF860B9607A6066
:1024D4000023FB75FB6893F83C30012B01D10223E8
:1024E400AEE0FB68012283F83C207B680C2B00F2F1
:1024F4009F8001A252F823F03125000835260008F8
:102504003526000835260008712500083526000800
:102514003526000835260008B325000835260008AE
:102524003526000835260008F3250008FB681B68DB
:10253400B968184600F0F8F9FB681B689A69FB68EB
:102544001B6842F008029A61FB681B689A69FB6881
:102554001B6822F004029A61FB681B689969BB68D6
:102564001A69FB681B680A439A6164E0FB681B688C
:10257400B968184600F03EFAFB681B689A69FB6864
:102584001B6842F400629A61FB681B689A69FB68E5
:102594001B6822F480629A61FB681B689969BB68B6
:1025A4001B691A02FB681B680A439A6143E0FB68D3
:1025B4001B68B968184600F089FAFB681B68DA6979
:1025C400FB681B6842F00802DA61FB681B68DA6981
:1025D400FB681B6822F00402DA61FB681B68D96996
:1025E400BB681A69FB681B680A43DA6123E0FB686D
:1025F4001B68B968184600F0D3FAFB681B68DA69EF
:10260400FB681B6842F40062DA61FB681B68DA69E4
:10261400FB681B6822F48062DA61FB681B68D96975
:10262400BB681B691A02FB681B680A43DA6102E093
:102634000123FB7500BFFB68002283F83C20FB7D6F
:1026440018461837BD4680BD80B584B000AF7860A9
:1026540039600023FB737B6893F83C30012B01D174
:102664000223B4E07B68012283F83C207B680222C9
:1026740083F83D207B681B689B68BB60BB6823F0C4
:102684007703BB60BB6823F47F43BB607B681B6834
:10269400BA689A603B681B68B3F5005F3ED0B3F537
:1026A400005F00F28780B3F5805F00F08680B3F5A9
:1026B400805F7FD8702B1AD0702B7BD8602B50D0C2
:1026C400602B77D8502B3CD0502B73D8402B58D04C
:1026D400402B6FD8302B64D0302B6BD8202B60D09C
:1026E400202B67D8002B5CD0102B5AD062E07B687B
:1026F40018683B6899683B685A683B68DB6800F077
:1027040019FB7B681B689B68BB60BB6843F077035D
:10271400BB607B681B68BA689A604FE07B68186886
:102724003B6899683B685A683B68DB6800F002FBC9
:102734007B681B689A687B681B6842F480429A60D5
:102744003CE07B6818683B6859683B68DB681A465C
:1027540000F076FA7B681B685021184600F0CFFA27
:102764002CE07B6818683B6859683B68DB681A464C
:1027740000F095FA7B681B686021184600F0BFFAE8
:102784001CE07B6818683B6859683B68DB681A463C
:1027940000F056FA7B681B684021184600F0AFFA37
:1027A4000CE07B681A683B681B681946104600F009
:1027B400A6FA03E00123FB7300E000BF7B6801225B
:1027C40083F83D207B68002283F83C20FB7B18467D
:1027D4001037BD4680BD80B483B000AF786000BFC1
:1027E4000C37BD465DF8047B704780B483B000AFFE
:1027F400786000BF0C37BD465DF8047B704780B439
:1028040083B000AF786000BF0C37BD465DF8047B31
:10281400704780B483B000AF786000BF0C37BD460A
:102824005DF8047B7047000080B485B000AF786029
:1028340039607B681B68FB607B68344A93420FD025
:102844007B68B3F1804F0BD07B68314A934207D049
:102854007B68304A934203D07B682F4A934208D165
:10286400FB6823F07003FB603B685B68FA68134302
:10287400FB607B68254A93421BD07B68B3F1804F91
:1028840017D07B68224A934213D07B68214A934233
:102894000FD07B68204A93420BD07B681F4A934237
:1028A40007D07B681E4A934203D07B681D4A93423B
:1028B40008D1FB6823F44073FB603B68DB68FA686B
:1028C4001343FB60FB6823F080023B685B6913439E
:1028D400FB607B68FA681A603B689A687B68DA6216
:1028E4003B681A687B689A627B68084A934203D102
:1028F4003B681A697B681A637B6801225A6100BFCE
:102904001437BD465DF8047B704700BF00000140EA
:102914000004004000080040000C0040004001405A
:10292400004401400048014080B487B000AF7860A3
:1029340039607B681B6A23F001027B681A627B683A
:102944001B6A7B617B685B683B617B689B69FB609E
:10295400FB6823F07003FB60FB6823F00303FB6058
:102964003B681B68FA681343FB607B6923F002032E
:102974007B613B689B687A6913437B617B681C4A73
:1029840093420CD17B6923F008037B613B68DB68CD
:102994007A6913437B617B6923F004037B617B6861
:1029A400134A934211D13B6923F480733B613B6921
:1029B40023F400733B613B685B693A6913433B61F1
:1029C4003B689B693A6913433B617B683A695A6087
:1029D4007B68FA689A613B685A687B685A637B68CB
:1029E4007A691A6200BF1C37BD465DF8047B7047E4
:1029F4000000014080B487B000AF786039607B6824
:102A04001B6A23F010027B681A627B681B6A7B6175
:102A14007B685B683B617B689B69FB60FB6823F4B4
:102A2400E043FB60FB6823F44073FB603B681B6876
:102A34001B02FA681343FB607B6923F020037B616C
:102A44003B689B681B017A6913437B617B681E4A60
:102A540093420DD17B6923F080037B613B68DB6883
:102A64001B017A6913437B617B6923F040037B611B
:102A74007B68154A934213D13B6923F480633B611D
:102A84003B6923F400633B613B685B699B003A69E3
:102A940013433B613B689B699B003A6913433B6169
:102AA4007B683A695A607B68FA689A613B685A683D
:102AB4007B689A637B687A691A6200BF1C37BD46DB
:102AC4005DF8047B704700BF0000014080B487B00C
:102AD40000AF786039607B681B6A23F480727B687E
:102AE4001A627B681B6A7B617B685B683B617B68FD
:102AF400DB69FB60FB6823F07003FB60FB6823F079
:102B04000303FB603B681B68FA681343FB607B6943
:102B140023F400737B613B689B681B027A6913434F
:102B24007B617B681D4A93420DD17B6923F400636A
:102B34007B613B68DB681B027A6913437B617B69B9
:102B440023F480637B617B68144A934213D13B690D
:102B540023F480533B613B6923F400533B613B689E
:102B64005B691B013A6913433B613B689B691B0129
:102B74003A6913433B617B683A695A607B68FA6837
:102B8400DA613B685A687B68DA637B687A691A623F
:102B940000BF1C37BD465DF8047B70470000014050
:102BA40080B487B000AF786039607B681B6A23F417
:102BB40080527B681A627B681B6A3B617B685B6836
:102BC4007B617B68DB69FB60FB6823F4E043FB60AB
:102BD400FB6823F44073FB603B681B681B02FA68C4
:102BE4001343FB603B6923F400533B613B689B68E0
:102BF4001B033A6913433B617B68104A934209D132
:102C04007B6923F480437B613B685B699B017A6940
:102C140013437B617B687A695A607B68FA68DA617E
:102C24003B685A687B681A647B683A691A6200BF19
:102C34001C37BD465DF8047B704700BF00000140AF
:102C440080B487B000AFF860B9607A60FB681B6A33
:102C54007B61FB681B6A23F00102FB681A62FB6854
:102C64009B693B613B6923F0F0033B617B681B017B
:102C74003A6913433B617B6923F00A037B617A69F8
:102C8400BB6813437B61FB683A699A61FB687A69A4
:102C94001A6200BF1C37BD465DF8047B704780B4E0
:102CA40087B000AFF860B9607A60FB681B6A23F0F4
:102CB4001002FB681A62FB689B697B61FB681B6AF4
:102CC4003B617B6923F470437B617B681B037A69F6
:102CD40013437B613B6923F0A0033B61BB681B0189
:102CE4003A6913433B61FB687A699A61FB683A6904
:102CF4001A6200BF1C37BD465DF8047B704780B480
:102D040085B000AF786039607B689B68FB60FB68C6
:102D140023F07003FB603A68FB68134343F0070336
:102D2400FB607B68FA689A6000BF1437BD465DF8A3
:102D3400047B704780B487B000AFF860B9607A60F4
:102D44003B60FB689B687B617B6923F47F437B6109
:102D54003B681A027B681A43BB6813437A691343BE
:102D64007B61FB687A699A6000BF1C37BD465DF8D9
:102D7400047B704780B485B000AF786039607B68AD
:102D840093F83C30012B01D1022350E07B680122EF
:102D940083F83C207B68022283F83D207B681B6813
:102DA4005B68FB607B681B689B68BB60FB6823F007
:102DB4007003FB603B681B68FA681343FB607B6825
:102DC4001B68FA685A607B681B681C4A934218D0D7
:102DD4007B681B68B3F1804F13D07B681B68184A6B
:102DE40093420ED07B681B68164A934209D07B68D5
:102DF4001B68154A934204D07B681B68134A9342AC
:102E04000CD1BB6823F08003BB603B685B68BA6885
:102E14001343BB607B681B68BA689A607B680122B5
:102E240083F83D207B68002283F83C200023184669
:102E34001437BD465DF8047B704700BF00000140B5
:102E44000004004000080040000C00400040014025
:102E540080B485B000AF786039600023FB607B6884
:102E640093F83C30012B01D102233DE07B68012221
:102E740083F83C20FB6823F0FF023B68DB681343C4
:102E8400FB60FB6823F440723B689B681343FB6060
:102E9400FB6823F480623B685B681343FB60FB6858
:102EA40023F400623B681B681343FB60FB6823F454
:102EB40080523B681B691343FB60FB6823F4005298
:102EC4003B685B691343FB60FB6823F480423B6807
:102ED400DB691343FB607B681B68FA685A647B6890
:102EE400002283F83C20002318461437BD465DF8C1
:102EF400047B704780B483B000AF786000BF0C37A8
:102F0400BD465DF8047B704780B483B000AF786041
:102F140000BF0C37BD465DF8047B704770B50D4D9E
:102F24000D4C641BA4100026A64209D10B4D0C4C79
:102F340000F020F8641BA4100026A64205D170BD41
:102F440055F8043B98470136EEE755F8043B98479B
:102F54000136F2E7A82F0008A82F0008A82F0008C0
:102F6400AC2F000802440346934200D1704703F893
:102F7400011BF9E7F8B500BFF8BC08BC9E467047D2
:0C2F8400F8B500BFF8BC08BC9E467047C2
:102F90000000000000000000010203040607080909
:082FA00064D2FF7F0100000074
:042FA800B901000863
:042FAC009501000883
:102FB000050000000024F4001000000001000000E3
:0400000508000AA93C
:00000001FF
